:020000040000FA
:100000000C9462000C948A000C948A000C948A0070
:100010000C948A000C948A000C948A000C948A0038
:100020000C948A000C948A000C948A000C94CE04E0
:100030000C948A000C948A000C948A000C948A0018
:100040000C9484040C948A000C9452040C942C0498
:100050000C948A000C948A000C948A000C948A00F8
:100060000C948A000C948A000000000024002700F1
:100070002A0000000000250028002B0000000000DE
:1000800023002600290004040404040404040202DA
:100090000202020203030303030301020408102007
:1000A0004080010204081020010204081020000012
:1000B0000008000201000003040700000000000027
:1000C0000000320511241FBECFEFD8E0DEBFCDBF48
:1000D00011E0A0E0B1E0ECE1F3E102C005900D9287
:1000E000A438B107D9F722E0A4E8B1E001C01D921D
:1000F000AB36B207E1F710E0C2E6D0E004C02197CA
:10010000FE010E948609C136D107C9F70E947D050C
:100110000C948C090C940000FC01538D448D252F08
:1001200030E0842F90E0821B930B541710F0CF9691
:10013000089501970895FC01918D828D981761F0C3
:10014000A28DAE0FBF2FB11D5D968C91928D9F5FDA
:100150009F73928F90E008958FEF9FEF0895FC01B9
:10016000918D828D981731F0828DE80FF11D858D6C
:1001700090E008958FEF9FEF0895FC01918D228DFF
:10018000892F90E0805C9F4F821B91098F73992784
:100190000895FC01A48DA80FB92FB11DA35ABF4F1C
:1001A0002C91848D90E001968F739927848FA68976
:1001B000B7892C93A089B1898C91837080648C93CA
:1001C000938D848D981306C00288F389E02D808179
:1001D0008F7D80830895EF92FF920F931F93CF93AB
:1001E000DF93EC0181E0888F9B8D8C8D98131AC072
:1001F000E889F989808185FF15C09FB7F894EE8959
:10020000FF896083E889F9898081837080648083B5
:100210009FBF81E090E0DF91CF911F910F91FF9000
:10022000EF900895F62E0B8D10E00F5F1F4F0F73A8
:100230001127E02E8C8D8E110CC00FB607FCFACF63
:10024000E889F989808185FFF5CFCE010E94C90038
:10025000F1CFEB8DEC0FFD2FF11DE35AFF4FF08234
:100260009FB7F8940B8FEA89FB8980818062CFCF9A
:10027000CF93DF93EC01888D8823B9F0AA89BB89DD
:10028000E889F9898C9185FD03C0808186FD0DC0C8
:100290000FB607FCF7CF8C9185FFF2CF808185FFE9
:1002A000EDCFCE010E94C900E9CFDF91CF91089533
:1002B00086EB91E00E94BD0021E0892B09F420E04B
:1002C000822F089580E090E0892B29F00E94580148
:1002D00081110C9400000895AF92BF92CF92DF92EB
:1002E000EF92FF920F931F93CF93DF936C017B01EB
:1002F0008B01040F151FEB015E01AE18BF08C0177C
:10030000D10759F06991D601ED91FC910190F081EE
:10031000E02DC6010995892B79F7C501DF91CF91B1
:100320001F910F91FF90EF90DF90CF90BF90AF9013
:100330000895833081F028F4813099F08230A9F05B
:1003400008958730A9F08830C9F08430B1F48091E5
:1003500080008F7D03C0809180008F778093800024
:10036000089584B58F7784BD089584B58F7DFBCFC4
:100370008091B0008F778093B00008958091B00095
:100380008F7DF9CF1F93CF93DF93282F30E0F901B2
:10039000E255FF4F8491F901E656FF4FD491F901E0
:1003A000EA57FF4FC491CC23A9F0162F81110E9468
:1003B0009901EC2FF0E0EE0FFF1FEE58FF4FA591D3
:1003C000B4918FB7F894EC91111108C0D095DE2349
:1003D000DC938FBFDF91CF911F910895DE2BF8CF73
:1003E000CF93DF9390E0FC01E656FF4F24918A57AC
:1003F0009F4FFC0184918823D1F090E0880F991FD2
:10040000FC01E859FF4FA591B491FC01EE58FF4F54
:10041000C591D49161110EC09FB7F8948C91E22FD1
:10042000E0958E238C932881E223E8839FBFDF91A0
:10043000CF9108958FB7F894EC91E22BEC938FBF96
:10044000F6CF8E3008F08E508770806480937C00E9
:1004500080917A00806480937A0080917A0086FD92
:10046000FCCF809178009091790008953FB7F8947F
:100470008091AE019091AF01A091B001B091B10116
:1004800026B5A89B05C02F3F19F00196A11DB11DEF
:100490003FBFBA2FA92F982F8827BC01CD01620F2B
:1004A000711D811D911D42E0660F771F881F991FE6
:1004B0004A95D1F708958F929F92AF92BF92CF92B3
:1004C000DF92EF92FF924B015C010E9436026B01BA
:1004D0007C010E9436026C197D098E099F09683ED5
:1004E000734081059105A8F321E0821A9108A108C3
:1004F000B10888EEC80E83E0D81EE11CF11C8114FF
:100500009104A104B10429F7FF90EF90DF90CF9000
:10051000BF90AF909F908F900895089590E080E0F5
:100520000895FC0101900020E9F73197AF01481BC5
:10053000590BBC0183E592E00C946C018F929F9261
:10054000AF92BF920F931F93CF93DF93CDB7DEB7D8
:10055000A1970FB6F894DEBF0FBECDBF19A24230EF
:1005600008F44AE08E010F5D1F4F842E912CB12CB0
:10057000A12CA50194010E949A07E62FB901CA0196
:10058000EA30F4F4E05DD801EE938D01232B242BA7
:10059000252B79F790E080E0109719F0CD010E94AB
:1005A0009102A1960FB6F894DEBF0FBECDBFDF91CA
:1005B000CF911F910F91BF90AF909F908F90089512
:1005C000E95CE1CFCF93DF93EC0160E08E810E9484
:1005D000C20161E08E810E94C20160E08E810E94B2
:1005E000C2018BE891E00197F1F7DF91CF91089577
:1005F000CF92DF92EF92FF920F931F93CF93DF93EF
:100600006C017C0187E0E80EF11CD0E0C0E0062F11
:1006100010E0B8010C2E02C0759567950A94E2F7B8
:100620006170F70181917F010E94C2012196C4305F
:10063000D10579F7C601DF91CF911F910F91FF90FE
:10064000EF90DF90CF900C94E202CF92DF92EF9286
:10065000FF920F931F93CF93DF93EC01F62E642F3D
:100660008C810E94C2018D818F3F19F060E00E9451
:10067000C2010F2D10E08F8584FF25C06E0187E039
:10068000C80ED11CF12CE12CB8010E2C02C07595BE
:1006900067950A94E2F76170F60181916F010E94FB
:1006A000C201FFEFEF1AFF0A88E0E816F10461F7D4
:1006B000CE01DF91CF911F910F91FF90EF90DF90CE
:1006C000CF900C94E202B80184E0759567958A9505
:1006D000E1F7CE010E94F8026F2DCE01DF91CF919C
:1006E0001F910F91FF90EF90DF90CF900C94F80244
:1006F00040E0682F83E592E00C94250381E00E949E
:1007000078038BE39FE10197F1F70895CF93DF938F
:10071000623029F490916202986090936202609333
:1007200066021092670290E49093680280936902D7
:10073000805C80936A0261E0809157020E94F00120
:10074000809158028F3F19F061E00E94F00161E052
:10075000809159020E94F001C3E5D2E09E01235529
:1007600032408091620284FD0BC084E090E02196CB
:100770002817390744F461E08E810E94F001EECF22
:1007800088E090E0F4CF8BE39DE00197F1F760E023
:10079000809157020E94C20160E0809159020E943C
:1007A000C201809158028F3F19F060E00E94C2019F
:1007B0008091620284FD34C063E083E592E00E9490
:1007C000F802CBE4D6E4CE010197F1F763E083E5CC
:1007D00092E00E94F8022197F1F763E083E592E04E
:1007E0000E94F80283E592E00197F1F762E083E569
:1007F00092E00E94F8028091620280620E94780377
:1008000084E0809363028CE00E9478030E947E0360
:1008100082E08093640286E0DF91CF910C947803AC
:1008200080620E9478038BE496E40197F1F780914F
:10083000620280620E94780383E592E00197F1F7FB
:100840008091620280620E947803D5CF41E00E94CD
:10085000250381E090E008951F920F920FB60F924A
:1008600011242F933F934F935F936F937F938F93B5
:100870009F93AF93BF93EF93FF9386EB91E00E941A
:10088000C900FF91EF91BF91AF919F918F917F919F
:100890006F915F914F913F912F910F900FBE0F90ED
:1008A0001F9018951F920F920FB60F9211242F933D
:1008B0008F939F93EF93FF93E091C601F091C7014F
:1008C0008081E091CC01F091CD0182FD1BC090812F
:1008D0008091CF018F5F8F732091D001821741F0FB
:1008E000E091CF01F0E0EA54FE4F958F8093CF0165
:1008F000FF91EF919F918F912F910F900FBE0F90CD
:100900001F9018958081F4CF1F920F920FB60F920F
:1009100011242F933F938F939F93AF93BF93809115
:10092000AA019091AB01A091AC01B091AD013091C1
:10093000A90123E0230F2D3758F50196A11DB11D04
:100940002093A9018093AA019093AB01A093AC01DD
:10095000B093AD018091AE019091AF01A091B00133
:10096000B091B1010196A11DB11D8093AE0190938C
:10097000AF01A093B001B093B101BF91AF919F912E
:100980008F913F912F910F900FBE0F901F90189550
:1009900026E8230F0296A11DB11DD2CF1F920F9200
:1009A0000FB60F9211242F933F938F939F93EF9342
:1009B000FF938091A80187FF1FC0109285001092BD
:1009C00084008091A8018F5F8093A8018091A80185
:1009D00087FF04C08091A8018C30ACF08091840026
:1009E00090918500049680349C4990F18091840018
:1009F0009091850004962EC08091A80187FFE1CFD9
:100A00008091A801DECF2091840030918500E09193
:100A1000A8018E2FEE0F990BFC01EE0FFF1FE80FC0
:100A2000F91FEC57FE4F81819281820F931F9093A3
:100A30008900809388008091A801FF91EF919F9198
:100A40008F913F912F910F900FBE0F901F9018958F
:100A500080E49CE990938900809388008FEF8093D5
:100A6000A801EBCFE6EBF1E01382128288EE93E06F
:100A7000A0E0B0E084839583A683B78384E091E00F
:100A80009183808385EC90E09587848784EC90E067
:100A90009787868780EC90E0918B808B81EC90E04B
:100AA000938B828B82EC90E0958B848B86EC90E02C
:100AB000978B868B118E128E138E148EE3E5F2E0E7
:100AC0001382128286E191E09183808386E08483A1
:100AD0008FEF858385E0868384E0878383E080874A
:100AE00082E0818781E082871386148615861686C8
:100AF000178661E080E10C948603789484B5826067
:100B000084BD84B5816084BD85B5826085BD85B5B1
:100B1000816085BD80916E00816080936E0010922F
:100B200081008091810082608093810080918100AA
:100B3000816080938100809180008160809380003B
:100B40008091B10084608093B1008091B000816099
:100B50008093B00080917A00846080937A008091C5
:100B60007A00826080937A0080917A00816080931D
:100B70007A0080917A00806880937A001092C10098
:100B800060E08AE00E94F00161E088E00E94F001EC
:100B900060E08EE00E94F00161E087E00E94F001D9
:100BA00060E080E10E94F00160E08FE00E94F001CF
:100BB00061E089E00E94F00162E080E10E9486032A
:100BC0008EE191E00E94910268EE73E080E090E097
:100BD0000E945B020E947E0398EB892E90E0992E82
:100BE000C4EAD0E000E910E020E0A22E20E0B22E1E
:100BF0008EE00E94210261E0813921E092070CF031
:100C0000DFC060E08039914009F0DAC087E00E94DF
:100C1000C20160E971E080E090E00E945B0264EF55
:100C200071E080E090E00E945B0280E10E9421027E
:100C3000BC01990F880B990B0E945F0820E030E0FF
:100C40004AEF5EE30E9414096093B2017093B3010E
:100C50008093B4019093B50182E391E00E949102E8
:100C6000C090B201D090B301E090B401F090B50112
:100C7000A7019601C701B6010E948109882309F4E2
:100C8000A3C081E491E00E9491028DE491E00E9472
:100C9000910280E591E00E94910268EE73E080E0AD
:100CA00090E00E945B020E947E038FE00E9421027E
:100CB0007C01E1E0809166028111E0E0E195F0E0E5
:100CC000ED5AFD4F848980680E94780327010F2C1C
:100CD000000C660877084AE0C301B20177FE0EC037
:100CE00041E06DE283E592E00E94250366277727C5
:100CF000CB0164197509860997094AE00E949E0292
:100D000068EE73E080E090E00E945B020E947E0348
:100D1000EF2809F0EFC061E089E00E94C201E09194
:100D20006602E23008F0E4C0E150F0E0ED5AFD4F19
:100D3000848980680E94780383E591E00E94910293
:100D400068EE73E080E090E00E945B020E947E0308
:100D5000F4018491FE01E490F801F490FF2009F47D
:100D6000DEC081110E949901EF2DF0E0EE0FFF1F10
:100D7000E458FF4FA591B4918C91E82209F4CFC0BB
:100D800061E088E00E94C20160E082E00E94860388
:100D90008FE591E00E94910268EE73E080E090E0C0
:100DA0000E945B020E947E03A114B10409F420CFCB
:100DB0000E945801882309F41BCF0E94000018CF1D
:100DC00087E00E94C2012BCF26013701E89477F813
:100DD0002FEF3FEF4FE75FE7C301B2010E948109A8
:100DE00081110DC02FEF3FEF4FE75FE7C301B20165
:100DF0000E94290818161CF485E491E044CF2FEFD7
:100E00003FEF4FE75FE4C701B6010E940F091816D4
:100E10001CF489E491E037CF2FEF3FEF4FE75FEC11
:100E2000C701B6010E94290887FDF3CF20E030E01A
:100E3000A901C701B6010E94290887FF0AC041E045
:100E40006DE283E592E00E942503F7FAF094F7F84B
:100E5000F0942AE037ED43EA5BE3C701B6010E9454
:100E6000BD072B013C010E942E086B017C010E94F2
:100E70005D089B01AC01C301B2010E94BC072B01BC
:100E80003C014AE0C701B6010E949E0241E06EE2C9
:100E900083E592E00E94250320E030E040E251E447
:100EA000C301B2010E9414092B013C010E942E08CB
:100EB0006B01F12CE12C4AE0C701B6010E949E02B1
:100EC000C701B6010E945D089B01AC01C301B201DC
:100ED0000E94BC0720E030E040E251E40E94140987
:100EE0000E942E0890E080E04AE00E949E02CDCE53
:100EF000E1E01BCF60E089E00E94C201E091660260
:100F0000E33058F4E150F0E0ED5AFD4F84898068F9
:100F10000E94780385E591E011CFE2E0F4CF60E034
:100F200088E00E94C20161E082E00E9486038FE6B1
:100F300091E030CFA1E21A2EAA1BBB1BFD010DC010
:100F4000AA1FBB1FEE1FFF1FA217B307E407F50779
:100F500020F0A21BB30BE40BF50B661F771F881F55
:100F6000991F1A9469F760957095809590959B01EB
:100F7000AC01BD01CF0108955058BB27AA270E949C
:100F8000D4070C94D5080E94C70838F00E94CE08F8
:100F900020F039F49F3F19F426F40C94C4080EF4A1
:100FA000E095E7FB0C94BE08E92F0E94E60858F391
:100FB000BA17620773078407950720F079F4A6F53E
:100FC0000C9408090EF4E0950B2EBA2FA02D0B01FE
:100FD000B90190010C01CA01A0011124FF27591B7E
:100FE00099F0593F50F4503E68F11A16F040A22F84
:100FF000232F342F4427585FF3CF469537952795F5
:10100000A795F0405395C9F77EF41F16BA0B620BF3
:10101000730B840BBAF09150A1F0FF0FBB1F661F3A
:10102000771F881FC2F70EC0BA0F621F731F841F7D
:1010300048F4879577956795B795F7959E3F08F0A3
:10104000B0CF9395880F08F09927EE0F9795879565
:1010500008950E949A0808F481E008950E94EE081D
:1010600088F09F5798F0B92F9927B751B0F0E1F069
:10107000660F771F881F991F1AF0BA95C9F714C019
:10108000B13091F00E940809B1E008950C9408096C
:10109000672F782F8827B85F39F0B93FCCF3869552
:1010A00077956795B395D9F73EF4909580957095AF
:1010B00061957F4F8F4F9F4F0895E89409C097FB2C
:1010C0003EF490958095709561957F4F8F4F9F4F1F
:1010D0009923A9F0F92F96E9BB279395F695879563
:1010E00077956795B795F111F8CFFAF4BB0F11F426
:1010F00060FF1BC06F5F7F4F8F4F9F4F16C08823CD
:1011000011F096E911C0772321F09EE8872F762F02
:1011100005C0662371F096E8862F70E060E02AF043
:101120009A95660F771F881FDAF7880F969587952F
:1011300097F90895990F0008550FAA0BE0E8FEEF04
:1011400016161706E807F907C0F012161306E4078B
:10115000F50798F0621B730B840B950B39F40A2684
:1011600061F0232B242B252B21F408950A2609F462
:10117000A140A6958FEF811D811D089597F99F6766
:1011800080E870E060E008959FEF80EC089500240F
:101190000A941616170618060906089500240A94DC
:1011A00012161306140605060895092E0394000C62
:1011B00011F4882352F0BB0F40F4BF2B11F460FFF1
:1011C00004C06F5F7F4F8F4F9F4F089557FD90581A
:1011D000440F551F59F05F3F71F04795880F97FBFB
:1011E000991F61F09F3F79F08795089512161306B5
:1011F0001406551FF2CF4695F1DF08C016161706E4
:101200001806991FF1CF8695710561050894089518
:10121000E894BB2766277727CB0197F908950E94AA
:101220009A0808F48FEF08950E9427090C94D508B6
:101230000E94C70838F00E94CE0820F0952311F0D4
:101240000C94BE080C94C40811240C9409090E9443
:10125000E60870F3959FC1F3950F50E0551F629F0C
:10126000F001729FBB27F00DB11D639FAA27F00DFF
:10127000B11DAA1F649F6627B00DA11D661F829F26
:101280002227B00DA11D621F739FB00DA11D621F0B
:10129000839FA00D611D221F749F3327A00D611D28
:1012A000231F849F600D211D822F762F6A2F11240A
:1012B0009F5750409AF0F1F088234AF0EE0FFF1F3D
:1012C000BB1F661F771F881F91505040A9F79E3F94
:1012D000510580F00C94BE080C9409095F3FE4F3BB
:1012E000983ED4F3869577956795B795F795E795EA
:1012F0009F5FC1F7FE2B880F911D9695879597F9F3
:1013000008950E949A08880B990B0895EE0FFF1F0D
:101310000590F491E02D0994F894FFCF00000000AF
:10132000EB006C018C003801BD009B00AF00000099
:10133000000026046C018E028D02536D61727448A8
:101340006F6D654175746F6D6174696F6E005445A2
:101350004D5045524154555245203D20006E616E1E
:1013600000696E66006F7666002A43000D0A004E23
:101370006F566962726174696F6E004D6F74696F48
:101380006E204465746563746564004D6F74696FA5
:101390006E204E6F7420446574656374656400004C
:107E0000112484B714BE81FFF0D085E080938100F7
:107E100082E08093C00088E18093C10086E0809377
:107E2000C20080E18093C4008EE0C9D0259A86E02C
:107E300020E33CEF91E0309385002093840096BBD3
:107E4000B09BFECF1D9AA8958150A9F7CC24DD24C4
:107E500088248394B5E0AB2EA1E19A2EF3E0BF2EE7
:107E6000A2D0813461F49FD0082FAFD0023811F036
:107E7000013811F484E001C083E08DD089C08234E0
:107E800011F484E103C0853419F485E0A6D080C0E4
:107E9000853579F488D0E82EFF2485D0082F10E0AE
:107EA000102F00270E291F29000F111F8ED06801E7
:107EB0006FC0863521F484E090D080E0DECF843638
:107EC00009F040C070D06FD0082F6DD080E0C81688
:107ED00080E7D80618F4F601B7BEE895C0E0D1E017
:107EE00062D089930C17E1F7F0E0CF16F0E7DF06D8
:107EF00018F0F601B7BEE89568D007B600FCFDCFD4
:107F0000A601A0E0B1E02C9130E011968C91119780
:107F100090E0982F8827822B932B1296FA010C0160
:107F200087BEE89511244E5F5F4FF1E0A038BF0790
:107F300051F7F601A7BEE89507B600FCFDCF97BE46
:107F4000E89526C08437B1F42ED02DD0F82E2BD052
:107F50003CD0F601EF2C8F010F5F1F4F84911BD097
:107F6000EA94F801C1F70894C11CD11CFA94CF0C13
:107F7000D11C0EC0853739F428D08EE10CD085E9AC
:107F80000AD08FE07ACF813511F488E018D01DD067
:107F900080E101D065CF982F8091C00085FFFCCF94
:107FA0009093C60008958091C00087FFFCCF809118
:107FB000C00084FD01C0A8958091C6000895E0E648
:107FC000F0E098E1908380830895EDDF803219F02E
:107FD00088E0F5DFFFCF84E1DECF1F93182FE3DFCA
:107FE0001150E9F7F2DF1F91089580E0E8DFEE27F6
:047FF000FF270994CA
:027FFE00040479
:00000001FF
